{
  "_format": "hh-sol-artifact-1",
  "contractName": "DocumentNotary",
  "sourceName": "contracts/DocumentNotary.sol",
  "abi": [
    {
      "anonymous": false,
      "inputs": [
        {
          "indexed": true,
          "internalType": "bytes32",
          "name": "documentHash",
          "type": "bytes32"
        },
        {
          "indexed": false,
          "internalType": "uint256",
          "name": "timestamp",
          "type": "uint256"
        },
        {
          "indexed": true,
          "internalType": "address",
          "name": "submittedBy",
          "type": "address"
        }
      ],
      "name": "DocumentHashStored",
      "type": "event"
    },
    {
      "inputs": [
        {
          "internalType": "bytes32",
          "name": "documentHash",
          "type": "bytes32"
        }
      ],
      "name": "documentHashExists",
      "outputs": [
        {
          "internalType": "bool",
          "name": "",
          "type": "bool"
        }
      ],
      "stateMutability": "view",
      "type": "function"
    },
    {
      "inputs": [
        {
          "internalType": "bytes32",
          "name": "documentHash",
          "type": "bytes32"
        }
      ],
      "name": "getDocumentProof",
      "outputs": [
        {
          "internalType": "uint256",
          "name": "timestamp",
          "type": "uint256"
        },
        {
          "internalType": "address",
          "name": "submittedBy",
          "type": "address"
        }
      ],
      "stateMutability": "view",
      "type": "function"
    },
    {
      "inputs": [
        {
          "internalType": "bytes32",
          "name": "documentHash",
          "type": "bytes32"
        }
      ],
      "name": "storeDocumentHash",
      "outputs": [],
      "stateMutability": "nonpayable",
      "type": "function"
    }
  ],
  "bytecode": "0x608060405234801561001057600080fd5b5061055e806100206000396000f3fe608060405234801561001057600080fd5b50600436106100415760003560e01c80633e82e2eb146100465780635f2ebe2714610077578063f0c1711f146100a7575b600080fd5b610060600480360381019061005b919061033e565b6100c3565b60405161006e9291906103c5565b60405180910390f35b610091600480360381019061008c919061033e565b61015b565b60405161009e9190610409565b60405180910390f35b6100c160048036038101906100bc919061033e565b61017d565b005b6000806000806000858152602001908152602001600020604051806040016040529081600082015481526020016001820160009054906101000a900473ffffffffffffffffffffffffffffffffffffffff1673ffffffffffffffffffffffffffffffffffffffff1673ffffffffffffffffffffffffffffffffffffffff16815250509050806000015181602001519250925050915091565b6000806000808481526020019081526020016000206000015414159050919050565b6000801b81036101c2576040517f08c379a00000000000000000000000000000000000000000000000000000000081526004016101b990610481565b60405180910390fd5b6000806000838152602001908152602001600020600001541461021a576040517f08c379a0000000000000000000000000000000000000000000000000000000008152600401610211906104ed565b60405180910390fd5b600042905060405180604001604052808281526020013373ffffffffffffffffffffffffffffffffffffffff168152506000808481526020019081526020016000206000820151816000015560208201518160010160006101000a81548173ffffffffffffffffffffffffffffffffffffffff021916908373ffffffffffffffffffffffffffffffffffffffff1602179055509050503373ffffffffffffffffffffffffffffffffffffffff16827f7e879194ba90c269b45dbf6afa90a1658403ccdcf15850c6fd3b252aa8533067836040516102f7919061050d565b60405180910390a35050565b600080fd5b6000819050919050565b61031b81610308565b811461032657600080fd5b50565b60008135905061033881610312565b92915050565b60006020828403121561035457610353610303565b5b600061036284828501610329565b91505092915050565b6000819050919050565b61037e8161036b565b82525050565b600073ffffffffffffffffffffffffffffffffffffffff82169050919050565b60006103af82610384565b9050919050565b6103bf816103a4565b82525050565b60006040820190506103da6000830185610375565b6103e760208301846103b6565b9392505050565b60008115159050919050565b610403816103ee565b82525050565b600060208201905061041e60008301846103fa565b92915050565b600082825260208201905092915050565b7f496e76616c696420686173680000000000000000000000000000000000000000600082015250565b600061046b600c83610424565b915061047682610435565b602082019050919050565b6000602082019050818103600083015261049a8161045e565b9050919050565b7f4861736820616c72656164792073746f72656400000000000000000000000000600082015250565b60006104d7601383610424565b91506104e2826104a1565b602082019050919050565b60006020820190508181036000830152610506816104ca565b9050919050565b60006020820190506105226000830184610375565b9291505056fea2646970667358221220a012184053f4e8753e925d9897c77cdbf9b368cb5615ec277cdbc828205aab2564736f6c63430008140033",
  "linkReferences": {},
  "deployedLinkReferences": {}
}