{"contracts/DocuTrustRegistry.sol":{"DocuTrustRegistry":{"abi":[{"anonymous":false,"inputs":[{"indexed":false,"internalType":"string","name":"hash","type":"string"},{"indexed":false,"internalType":"uint256","name":"timestamp","type":"uint256"},{"indexed":false,"internalType":"address","name":"issuer","type":"address"}],"name":"DocumentRegistered","type":"event"},{"inputs":[{"internalType":"string","name":"_hash","type":"string"}],"name":"registerDocument","outputs":[],"stateMutability":"nonpayable","type":"function"},{"inputs":[{"internalType":"string","name":"_hash","type":"string"}],"name":"verifyDocument","outputs":[{"internalType":"bool","name":"exists","type":"bool"},{"internalType":"uint256","name":"timestamp","type":"uint256"},{"internalType":"address","name":"issuer","type":"address"}],"stateMutability":"view","type":"function"}],"evm":{"bytecode":{"linkReferences":{},"object":"608060405234801561001057600080fd5b50610abc806100206000396000f3fe608060405234801561001057600080fd5b50600436106100365760003560e01c80634847a4701461003b578063beee5eb714610057575b600080fd5b610055600480360381019061005091906104cb565b610089565b005b610071600480360381019061006c91906104cb565b61022d565b60405161008093929190610589565b60405180910390f35b60008151116100cd576040517f08c379a00000000000000000000000000000000000000000000000000000000081526004016100c49061061d565b60405180910390fd5b600080826040516100de91906106ae565b90815260200160405180910390206001015414610130576040517f08c379a000000000000000000000000000000000000000000000000000000000815260040161012790610711565b60405180910390fd5b600042905060405180606001604052808381526020018281526020013373ffffffffffffffffffffffffffffffffffffffff1681525060008360405161017691906106ae565b90815260200160405180910390206000820151816000019081610199919061093d565b506020820151816001015560408201518160020160006101000a81548173ffffffffffffffffffffffffffffffffffffffff021916908373ffffffffffffffffffffffffffffffffffffffff1602179055509050507ffe385721665ef277aefa25d282c88da0eef2a081dd624e2b6f431b3a7f354eb082823360405161022193929190610a48565b60405180910390a15050565b60008060008060008560405161024391906106ae565b908152602001604051809103902060405180606001604052908160008201805461026c90610760565b80601f016020809104026020016040519081016040528092919081815260200182805461029890610760565b80156102e55780601f106102ba576101008083540402835291602001916102e5565b820191906000526020600020905b8154815290600101906020018083116102c857829003601f168201915b50505050508152602001600182015481526020016002820160009054906101000a900473ffffffffffffffffffffffffffffffffffffffff1673ffffffffffffffffffffffffffffffffffffffff1673ffffffffffffffffffffffffffffffffffffffff1681525050905060008160200151141593508060200151925080604001519150509193909250565b6000604051905090565b600080fd5b600080fd5b600080fd5b600080fd5b6000601f19601f8301169050919050565b7f4e487b7100000000000000000000000000000000000000000000000000000000600052604160045260246000fd5b6103d88261038f565b810181811067ffffffffffffffff821117156103f7576103f66103a0565b5b80604052505050565b600061040a610371565b905061041682826103cf565b919050565b600067ffffffffffffffff821115610436576104356103a0565b5b61043f8261038f565b9050602081019050919050565b82818337600083830152505050565b600061046e6104698461041b565b610400565b90508281526020810184848401111561048a5761048961038a565b5b61049584828561044c565b509392505050565b600082601f8301126104b2576104b1610385565b5b81356104c284826020860161045b565b91505092915050565b6000602082840312156104e1576104e061037b565b5b600082013567ffffffffffffffff8111156104ff576104fe610380565b5b61050b8482850161049d565b91505092915050565b60008115159050919050565b61052981610514565b82525050565b6000819050919050565b6105428161052f565b82525050565b600073ffffffffffffffffffffffffffffffffffffffff82169050919050565b600061057382610548565b9050919050565b61058381610568565b82525050565b600060608201905061059e6000830186610520565b6105ab6020830185610539565b6105b8604083018461057a565b949350505050565b600082825260208201905092915050565b7f4861736820697320726571756972656400000000000000000000000000000000600082015250565b60006106076010836105c0565b9150610612826105d1565b602082019050919050565b60006020820190508181036000830152610636816105fa565b9050919050565b600081519050919050565b600081905092915050565b60005b83811015610671578082015181840152602081019050610656565b60008484015250505050565b60006106888261063d565b6106928185610648565b93506106a2818560208601610653565b80840191505092915050565b60006106ba828461067d565b915081905092915050565b7f446f63756d656e7420616c726561647920726567697374657265640000000000600082015250565b60006106fb601b836105c0565b9150610706826106c5565b602082019050919050565b6000602082019050818103600083015261072a816106ee565b9050919050565b7f4e487b7100000000000000000000000000000000000000000000000000000000600052602260045260246000fd5b6000600282049050600182168061077857607f821691505b60208210810361078b5761078a610731565b5b50919050565b60008190508160005260206000209050919050565b60006020601f8301049050919050565b600082821b905092915050565b6000600883026107f37fffffffffffffffffffffffffffffffffffffffffffffffffffffffffffffffff826107b6565b6107fd86836107b6565b95508019841693508086168417925050509392505050565b6000819050919050565b600061083a6108356108308461052f565b610815565b61052f565b9050919050565b6000819050919050565b6108548361081f565b61086861086082610841565b8484546107c3565b825550505050565b600090565b61087d610870565b61088881848461084b565b505050565b5b818110156108ac576108a1600082610875565b60018101905061088e565b5050565b601f8211156108f1576108c281610791565b6108cb846107a6565b810160208510156108da578190505b6108ee6108e6856107a6565b83018261088d565b50505b505050565b600082821c905092915050565b6000610914600019846008026108f6565b1980831691505092915050565b600061092d8383610903565b9150826002028217905092915050565b6109468261063d565b67ffffffffffffffff81111561095f5761095e6103a0565b5b6109698254610760565b6109748282856108b0565b600060209050601f8311600181146109a75760008415610995578287015190505b61099f8582610921565b865550610a07565b601f1984166109b586610791565b60005b828110156109dd578489015182556001820191506020850194506020810190506109b8565b868310156109fa57848901516109f6601f891682610903565b8355505b6001600288020188555050505b505050505050565b6000610a1a8261063d565b610a2481856105c0565b9350610a34818560208601610653565b610a3d8161038f565b840191505092915050565b60006060820190508181036000830152610a628186610a0f565b9050610a716020830185610539565b610a7e604083018461057a565b94935050505056fea2646970667358221220368781e93b11a71b7771f9d56bb9e0fbaf9f6bd81081c96f8f798f6f1592959164736f6c63430008140033","opcodes":"PUSH1 0x80 PUSH1 0x40 MSTORE CALLVALUE DUP1 ISZERO PUSH2 0x10 JUMPI PUSH1 0x0 DUP1 REVERT JUMPDEST POP PUSH2 0xABC DUP1 PUSH2 0x20 PUSH1 0x0 CODECOPY PUSH1 0x0 RETURN INVALID PUSH1 0x80 PUSH1 0x40 MSTORE CALLVALUE DUP1 ISZERO PUSH2 0x10 JUMPI PUSH1 0x0 DUP1 REVERT JUMPDEST POP PUSH1 0x4 CALLDATASIZE LT PUSH2 0x36 JUMPI PUSH1 0x0 CALLDATALOAD PUSH1 0xE0 SHR DUP1 PUSH4 0x4847A470 EQ PUSH2 0x3B JUMPI DUP1 PUSH4 0xBEEE5EB7 EQ PUSH2 0x57 JUMPI JUMPDEST PUSH1 0x0 DUP1 REVERT JUMPDEST PUSH2 0x55 PUSH1 0x4 DUP1 CALLDATASIZE SUB DUP2 ADD SWAP1 PUSH2 0x50 SWAP2 SWAP1 PUSH2 0x4CB JUMP JUMPDEST PUSH2 0x89 JUMP JUMPDEST STOP JUMPDEST PUSH2 0x71 PUSH1 0x4 DUP1 CALLDATASIZE SUB DUP2 ADD SWAP1 PUSH2 0x6C SWAP2 SWAP1 PUSH2 0x4CB JUMP JUMPDEST PUSH2 0x22D JUMP JUMPDEST PUSH1 0x40 MLOAD PUSH2 0x80 SWAP4 SWAP3 SWAP2 SWAP1 PUSH2 0x589 JUMP JUMPDEST PUSH1 0x40 MLOAD DUP1 SWAP2 SUB SWAP1 RETURN JUMPDEST PUSH1 0x0 DUP2 MLOAD GT PUSH2 0xCD JUMPI PUSH1 0x40 MLOAD PUSH32 0x8C379A000000000000000000000000000000000000000000000000000000000 DUP2 MSTORE PUSH1 0x4 ADD PUSH2 0xC4 SWAP1 PUSH2 0x61D JUMP JUMPDEST PUSH1 0x40 MLOAD DUP1 SWAP2 SUB SWAP1 REVERT JUMPDEST PUSH1 0x0 DUP1 DUP3 PUSH1 0x40 MLOAD PUSH2 0xDE SWAP2 SWAP1 PUSH2 0x6AE JUMP JUMPDEST SWAP1 DUP2 MSTORE PUSH1 0x20 ADD PUSH1 0x40 MLOAD DUP1 SWAP2 SUB SWAP1 KECCAK256 PUSH1 0x1 ADD SLOAD EQ PUSH2 0x130 JUMPI PUSH1 0x40 MLOAD PUSH32 0x8C379A000000000000000000000000000000000000000000000000000000000 DUP2 MSTORE PUSH1 0x4 ADD PUSH2 0x127 SWAP1 PUSH2 0x711 JUMP JUMPDEST PUSH1 0x40 MLOAD DUP1 SWAP2 SUB SWAP1 REVERT JUMPDEST PUSH1 0x0 TIMESTAMP SWAP1 POP PUSH1 0x40 MLOAD DUP1 PUSH1 0x60 ADD PUSH1 0x40 MSTORE DUP1 DUP4 DUP2 MSTORE PUSH1 0x20 ADD DUP3 DUP2 MSTORE PUSH1 0x20 ADD CALLER PUSH20 0xFFFFFFFFFFFFFFFFFFFFFFFFFFFFFFFFFFFFFFFF AND DUP2 MSTORE POP PUSH1 0x0 DUP4 PUSH1 0x40 MLOAD PUSH2 0x176 SWAP2 SWAP1 PUSH2 0x6AE JUMP JUMPDEST SWAP1 DUP2 MSTORE PUSH1 0x20 ADD PUSH1 0x40 MLOAD DUP1 SWAP2 SUB SWAP1 KECCAK256 PUSH1 0x0 DUP3 ADD MLOAD DUP2 PUSH1 0x0 ADD SWAP1 DUP2 PUSH2 0x199 SWAP2 SWAP1 PUSH2 0x93D JUMP JUMPDEST POP PUSH1 0x20 DUP3 ADD MLOAD DUP2 PUSH1 0x1 ADD SSTORE PUSH1 0x40 DUP3 ADD MLOAD DUP2 PUSH1 0x2 ADD PUSH1 0x0 PUSH2 0x100 EXP DUP2 SLOAD DUP2 PUSH20 0xFFFFFFFFFFFFFFFFFFFFFFFFFFFFFFFFFFFFFFFF MUL NOT AND SWAP1 DUP4 PUSH20 0xFFFFFFFFFFFFFFFFFFFFFFFFFFFFFFFFFFFFFFFF AND MUL OR SWAP1 SSTORE POP SWAP1 POP POP PUSH32 0xFE385721665EF277AEFA25D282C88DA0EEF2A081DD624E2B6F431B3A7F354EB0 DUP3 DUP3 CALLER PUSH1 0x40 MLOAD PUSH2 0x221 SWAP4 SWAP3 SWAP2 SWAP1 PUSH2 0xA48 JUMP JUMPDEST PUSH1 0x40 MLOAD DUP1 SWAP2 SUB SWAP1 LOG1 POP POP JUMP JUMPDEST PUSH1 0x0 DUP1 PUSH1 0x0 DUP1 PUSH1 0x0 DUP6 PUSH1 0x40 MLOAD PUSH2 0x243 SWAP2 SWAP1 PUSH2 0x6AE JUMP JUMPDEST SWAP1 DUP2 MSTORE PUSH1 0x20 ADD PUSH1 0x40 MLOAD DUP1 SWAP2 SUB SWAP1 KECCAK256 PUSH1 0x40 MLOAD DUP1 PUSH1 0x60 ADD PUSH1 0x40 MSTORE SWAP1 DUP2 PUSH1 0x0 DUP3 ADD DUP1 SLOAD PUSH2 0x26C SWAP1 PUSH2 0x760 JUMP JUMPDEST DUP1 PUSH1 0x1F ADD PUSH1 0x20 DUP1 SWAP2 DIV MUL PUSH1 0x20 ADD PUSH1 0x40 MLOAD SWAP1 DUP2 ADD PUSH1 0x40 MSTORE DUP1 SWAP3 SWAP2 SWAP1 DUP2 DUP2 MSTORE PUSH1 0x20 ADD DUP3 DUP1 SLOAD PUSH2 0x298 SWAP1 PUSH2 0x760 JUMP JUMPDEST DUP1 ISZERO PUSH2 0x2E5 JUMPI DUP1 PUSH1 0x1F LT PUSH2 0x2BA JUMPI PUSH2 0x100 DUP1 DUP4 SLOAD DIV MUL DUP4 MSTORE SWAP2 PUSH1 0x20 ADD SWAP2 PUSH2 0x2E5 JUMP JUMPDEST DUP3 ADD SWAP2 SWAP1 PUSH1 0x0 MSTORE PUSH1 0x20 PUSH1 0x0 KECCAK256 SWAP1 JUMPDEST DUP2 SLOAD DUP2 MSTORE SWAP1 PUSH1 0x1 ADD SWAP1 PUSH1 0x20 ADD DUP1 DUP4 GT PUSH2 0x2C8 JUMPI DUP3 SWAP1 SUB PUSH1 0x1F AND DUP3 ADD SWAP2 JUMPDEST POP POP POP POP POP DUP2 MSTORE PUSH1 0x20 ADD PUSH1 0x1 DUP3 ADD SLOAD DUP2 MSTORE PUSH1 0x20 ADD PUSH1 0x2 DUP3 ADD PUSH1 0x0 SWAP1 SLOAD SWAP1 PUSH2 0x100 EXP SWAP1 DIV PUSH20 0xFFFFFFFFFFFFFFFFFFFFFFFFFFFFFFFFFFFFFFFF AND PUSH20 0xFFFFFFFFFFFFFFFFFFFFFFFFFFFFFFFFFFFFFFFF AND PUSH20 0xFFFFFFFFFFFFFFFFFFFFFFFFFFFFFFFFFFFFFFFF AND DUP2 MSTORE POP POP SWAP1 POP PUSH1 0x0 DUP2 PUSH1 0x20 ADD MLOAD EQ ISZERO SWAP4 POP DUP1 PUSH1 0x20 ADD MLOAD SWAP3 POP DUP1 PUSH1 0x40 ADD MLOAD SWAP2 POP POP SWAP2 SWAP4 SWAP1 SWAP3 POP JUMP JUMPDEST PUSH1 0x0 PUSH1 0x40 MLOAD SWAP1 POP SWAP1 JUMP JUMPDEST PUSH1 0x0 DUP1 REVERT JUMPDEST PUSH1 0x0 DUP1 REVERT JUMPDEST PUSH1 0x0 DUP1 REVERT JUMPDEST PUSH1 0x0 DUP1 REVERT JUMPDEST PUSH1 0x0 PUSH1 0x1F NOT PUSH1 0x1F DUP4 ADD AND SWAP1 POP SWAP2 SWAP1 POP JUMP JUMPDEST PUSH32 0x4E487B7100000000000000000000000000000000000000000000000000000000 PUSH1 0x0 MSTORE PUSH1 0x41 PUSH1 0x4 MSTORE PUSH1 0x24 PUSH1 0x0 REVERT JUMPDEST PUSH2 0x3D8 DUP3 PUSH2 0x38F JUMP JUMPDEST DUP2 ADD DUP2 DUP2 LT PUSH8 0xFFFFFFFFFFFFFFFF DUP3 GT OR ISZERO PUSH2 0x3F7 JUMPI PUSH2 0x3F6 PUSH2 0x3A0 JUMP JUMPDEST JUMPDEST DUP1 PUSH1 0x40 MSTORE POP POP POP JUMP JUMPDEST PUSH1 0x0 PUSH2 0x40A PUSH2 0x371 JUMP JUMPDEST SWAP1 POP PUSH2 0x416 DUP3 DUP3 PUSH2 0x3CF JUMP JUMPDEST SWAP2 SWAP1 POP JUMP JUMPDEST PUSH1 0x0 PUSH8 0xFFFFFFFFFFFFFFFF DUP3 GT ISZERO PUSH2 0x436 JUMPI PUSH2 0x435 PUSH2 0x3A0 JUMP JUMPDEST JUMPDEST PUSH2 0x43F DUP3 PUSH2 0x38F JUMP JUMPDEST SWAP1 POP PUSH1 0x20 DUP2 ADD SWAP1 POP SWAP2 SWAP1 POP JUMP JUMPDEST DUP3 DUP2 DUP4 CALLDATACOPY PUSH1 0x0 DUP4 DUP4 ADD MSTORE POP POP POP JUMP JUMPDEST PUSH1 0x0 PUSH2 0x46E PUSH2 0x469 DUP5 PUSH2 0x41B JUMP JUMPDEST PUSH2 0x400 JUMP JUMPDEST SWAP1 POP DUP3 DUP2 MSTORE PUSH1 0x20 DUP2 ADD DUP5 DUP5 DUP5 ADD GT ISZERO PUSH2 0x48A JUMPI PUSH2 0x489 PUSH2 0x38A JUMP JUMPDEST JUMPDEST PUSH2 0x495 DUP5 DUP3 DUP6 PUSH2 0x44C JUMP JUMPDEST POP SWAP4 SWAP3 POP POP POP JUMP JUMPDEST PUSH1 0x0 DUP3 PUSH1 0x1F DUP4 ADD SLT PUSH2 0x4B2 JUMPI PUSH2 0x4B1 PUSH2 0x385 JUMP JUMPDEST JUMPDEST DUP2 CALLDATALOAD PUSH2 0x4C2 DUP5 DUP3 PUSH1 0x20 DUP7 ADD PUSH2 0x45B JUMP JUMPDEST SWAP2 POP POP SWAP3 SWAP2 POP POP JUMP JUMPDEST PUSH1 0x0 PUSH1 0x20 DUP3 DUP5 SUB SLT ISZERO PUSH2 0x4E1 JUMPI PUSH2 0x4E0 PUSH2 0x37B JUMP JUMPDEST JUMPDEST PUSH1 0x0 DUP3 ADD CALLDATALOAD PUSH8 0xFFFFFFFFFFFFFFFF DUP2 GT ISZERO PUSH2 0x4FF JUMPI PUSH2 0x4FE PUSH2 0x380 JUMP JUMPDEST JUMPDEST PUSH2 0x50B DUP5 DUP3 DUP6 ADD PUSH2 0x49D JUMP JUMPDEST SWAP2 POP POP SWAP3 SWAP2 POP POP JUMP JUMPDEST PUSH1 0x0 DUP2 ISZERO ISZERO SWAP1 POP SWAP2 SWAP1 POP JUMP JUMPDEST PUSH2 0x529 DUP2 PUSH2 0x514 JUMP JUMPDEST DUP3 MSTORE POP POP JUMP JUMPDEST PUSH1 0x0 DUP2 SWAP1 POP SWAP2 SWAP1 POP JUMP JUMPDEST PUSH2 0x542 DUP2 PUSH2 0x52F JUMP JUMPDEST DUP3 MSTORE POP POP JUMP JUMPDEST PUSH1 0x0 PUSH20 0xFFFFFFFFFFFFFFFFFFFFFFFFFFFFFFFFFFFFFFFF DUP3 AND SWAP1 POP SWAP2 SWAP1 POP JUMP JUMPDEST PUSH1 0x0 PUSH2 0x573 DUP3 PUSH2 0x548 JUMP JUMPDEST SWAP1 POP SWAP2 SWAP1 POP JUMP JUMPDEST PUSH2 0x583 DUP2 PUSH2 0x568 JUMP JUMPDEST DUP3 MSTORE POP POP JUMP JUMPDEST PUSH1 0x0 PUSH1 0x60 DUP3 ADD SWAP1 POP PUSH2 0x59E PUSH1 0x0 DUP4 ADD DUP7 PUSH2 0x520 JUMP JUMPDEST PUSH2 0x5AB PUSH1 0x20 DUP4 ADD DUP6 PUSH2 0x539 JUMP JUMPDEST PUSH2 0x5B8 PUSH1 0x40 DUP4 ADD DUP5 PUSH2 0x57A JUMP JUMPDEST SWAP5 SWAP4 POP POP POP POP JUMP JUMPDEST PUSH1 0x0 DUP3 DUP3 MSTORE PUSH1 0x20 DUP3 ADD SWAP1 POP SWAP3 SWAP2 POP POP JUMP JUMPDEST PUSH32 0x4861736820697320726571756972656400000000000000000000000000000000 PUSH1 0x0 DUP3 ADD MSTORE POP JUMP JUMPDEST PUSH1 0x0 PUSH2 0x607 PUSH1 0x10 DUP4 PUSH2 0x5C0 JUMP JUMPDEST SWAP2 POP PUSH2 0x612 DUP3 PUSH2 0x5D1 JUMP JUMPDEST PUSH1 0x20 DUP3 ADD SWAP1 POP SWAP2 SWAP1 POP JUMP JUMPDEST PUSH1 0x0 PUSH1 0x20 DUP3 ADD SWAP1 POP DUP2 DUP2 SUB PUSH1 0x0 DUP4 ADD MSTORE PUSH2 0x636 DUP2 PUSH2 0x5FA JUMP JUMPDEST SWAP1 POP SWAP2 SWAP1 POP JUMP JUMPDEST PUSH1 0x0 DUP2 MLOAD SWAP1 POP SWAP2 SWAP1 POP JUMP JUMPDEST PUSH1 0x0 DUP2 SWAP1 POP SWAP3 SWAP2 POP POP JUMP JUMPDEST PUSH1 0x0 JUMPDEST DUP4 DUP2 LT ISZERO PUSH2 0x671 JUMPI DUP1 DUP3 ADD MLOAD DUP2 DUP5 ADD MSTORE PUSH1 0x20 DUP2 ADD SWAP1 POP PUSH2 0x656 JUMP JUMPDEST PUSH1 0x0 DUP5 DUP5 ADD MSTORE POP POP POP POP JUMP JUMPDEST PUSH1 0x0 PUSH2 0x688 DUP3 PUSH2 0x63D JUMP JUMPDEST PUSH2 0x692 DUP2 DUP6 PUSH2 0x648 JUMP JUMPDEST SWAP4 POP PUSH2 0x6A2 DUP2 DUP6 PUSH1 0x20 DUP7 ADD PUSH2 0x653 JUMP JUMPDEST DUP1 DUP5 ADD SWAP2 POP POP SWAP3 SWAP2 POP POP JUMP JUMPDEST PUSH1 0x0 PUSH2 0x6BA DUP3 DUP5 PUSH2 0x67D JUMP JUMPDEST SWAP2 POP DUP2 SWAP1 POP SWAP3 SWAP2 POP POP JUMP JUMPDEST PUSH32 0x446F63756D656E7420616C726561647920726567697374657265640000000000 PUSH1 0x0 DUP3 ADD MSTORE POP JUMP JUMPDEST PUSH1 0x0 PUSH2 0x6FB PUSH1 0x1B DUP4 PUSH2 0x5C0 JUMP JUMPDEST SWAP2 POP PUSH2 0x706 DUP3 PUSH2 0x6C5 JUMP JUMPDEST PUSH1 0x20 DUP3 ADD SWAP1 POP SWAP2 SWAP1 POP JUMP JUMPDEST PUSH1 0x0 PUSH1 0x20 DUP3 ADD SWAP1 POP DUP2 DUP2 SUB PUSH1 0x0 DUP4 ADD MSTORE PUSH2 0x72A DUP2 PUSH2 0x6EE JUMP JUMPDEST SWAP1 POP SWAP2 SWAP1 POP JUMP JUMPDEST PUSH32 0x4E487B7100000000000000000000000000000000000000000000000000000000 PUSH1 0x0 MSTORE PUSH1 0x22 PUSH1 0x4 MSTORE PUSH1 0x24 PUSH1 0x0 REVERT JUMPDEST PUSH1 0x0 PUSH1 0x2 DUP3 DIV SWAP1 POP PUSH1 0x1 DUP3 AND DUP1 PUSH2 0x778 JUMPI PUSH1 0x7F DUP3 AND SWAP2 POP JUMPDEST PUSH1 0x20 DUP3 LT DUP2 SUB PUSH2 0x78B JUMPI PUSH2 0x78A PUSH2 0x731 JUMP JUMPDEST JUMPDEST POP SWAP2 SWAP1 POP JUMP JUMPDEST PUSH1 0x0 DUP2 SWAP1 POP DUP2 PUSH1 0x0 MSTORE PUSH1 0x20 PUSH1 0x0 KECCAK256 SWAP1 POP SWAP2 SWAP1 POP JUMP JUMPDEST PUSH1 0x0 PUSH1 0x20 PUSH1 0x1F DUP4 ADD DIV SWAP1 POP SWAP2 SWAP1 POP JUMP JUMPDEST PUSH1 0x0 DUP3 DUP3 SHL SWAP1 POP SWAP3 SWAP2 POP POP JUMP JUMPDEST PUSH1 0x0 PUSH1 0x8 DUP4 MUL PUSH2 0x7F3 PUSH32 0xFFFFFFFFFFFFFFFFFFFFFFFFFFFFFFFFFFFFFFFFFFFFFFFFFFFFFFFFFFFFFFFF DUP3 PUSH2 0x7B6 JUMP JUMPDEST PUSH2 0x7FD DUP7 DUP4 PUSH2 0x7B6 JUMP JUMPDEST SWAP6 POP DUP1 NOT DUP5 AND SWAP4 POP DUP1 DUP7 AND DUP5 OR SWAP3 POP POP POP SWAP4 SWAP3 POP POP POP JUMP JUMPDEST PUSH1 0x0 DUP2 SWAP1 POP SWAP2 SWAP1 POP JUMP JUMPDEST PUSH1 0x0 PUSH2 0x83A PUSH2 0x835 PUSH2 0x830 DUP5 PUSH2 0x52F JUMP JUMPDEST PUSH2 0x815 JUMP JUMPDEST PUSH2 0x52F JUMP JUMPDEST SWAP1 POP SWAP2 SWAP1 POP JUMP JUMPDEST PUSH1 0x0 DUP2 SWAP1 POP SWAP2 SWAP1 POP JUMP JUMPDEST PUSH2 0x854 DUP4 PUSH2 0x81F JUMP JUMPDEST PUSH2 0x868 PUSH2 0x860 DUP3 PUSH2 0x841 JUMP JUMPDEST DUP5 DUP5 SLOAD PUSH2 0x7C3 JUMP JUMPDEST DUP3 SSTORE POP POP POP POP JUMP JUMPDEST PUSH1 0x0 SWAP1 JUMP JUMPDEST PUSH2 0x87D PUSH2 0x870 JUMP JUMPDEST PUSH2 0x888 DUP2 DUP5 DUP5 PUSH2 0x84B JUMP JUMPDEST POP POP POP JUMP JUMPDEST JUMPDEST DUP2 DUP2 LT ISZERO PUSH2 0x8AC JUMPI PUSH2 0x8A1 PUSH1 0x0 DUP3 PUSH2 0x875 JUMP JUMPDEST PUSH1 0x1 DUP2 ADD SWAP1 POP PUSH2 0x88E JUMP JUMPDEST POP POP JUMP JUMPDEST PUSH1 0x1F DUP3 GT ISZERO PUSH2 0x8F1 JUMPI PUSH2 0x8C2 DUP2 PUSH2 0x791 JUMP JUMPDEST PUSH2 0x8CB DUP5 PUSH2 0x7A6 JUMP JUMPDEST DUP2 ADD PUSH1 0x20 DUP6 LT ISZERO PUSH2 0x8DA JUMPI DUP2 SWAP1 POP JUMPDEST PUSH2 0x8EE PUSH2 0x8E6 DUP6 PUSH2 0x7A6 JUMP JUMPDEST DUP4 ADD DUP3 PUSH2 0x88D JUMP JUMPDEST POP POP JUMPDEST POP POP POP JUMP JUMPDEST PUSH1 0x0 DUP3 DUP3 SHR SWAP1 POP SWAP3 SWAP2 POP POP JUMP JUMPDEST PUSH1 0x0 PUSH2 0x914 PUSH1 0x0 NOT DUP5 PUSH1 0x8 MUL PUSH2 0x8F6 JUMP JUMPDEST NOT DUP1 DUP4 AND SWAP2 POP POP SWAP3 SWAP2 POP POP JUMP JUMPDEST PUSH1 0x0 PUSH2 0x92D DUP4 DUP4 PUSH2 0x903 JUMP JUMPDEST SWAP2 POP DUP3 PUSH1 0x2 MUL DUP3 OR SWAP1 POP SWAP3 SWAP2 POP POP JUMP JUMPDEST PUSH2 0x946 DUP3 PUSH2 0x63D JUMP JUMPDEST PUSH8 0xFFFFFFFFFFFFFFFF DUP2 GT ISZERO PUSH2 0x95F JUMPI PUSH2 0x95E PUSH2 0x3A0 JUMP JUMPDEST JUMPDEST PUSH2 0x969 DUP3 SLOAD PUSH2 0x760 JUMP JUMPDEST PUSH2 0x974 DUP3 DUP3 DUP6 PUSH2 0x8B0 JUMP JUMPDEST PUSH1 0x0 PUSH1 0x20 SWAP1 POP PUSH1 0x1F DUP4 GT PUSH1 0x1 DUP2 EQ PUSH2 0x9A7 JUMPI PUSH1 0x0 DUP5 ISZERO PUSH2 0x995 JUMPI DUP3 DUP8 ADD MLOAD SWAP1 POP JUMPDEST PUSH2 0x99F DUP6 DUP3 PUSH2 0x921 JUMP JUMPDEST DUP7 SSTORE POP PUSH2 0xA07 JUMP JUMPDEST PUSH1 0x1F NOT DUP5 AND PUSH2 0x9B5 DUP7 PUSH2 0x791 JUMP JUMPDEST PUSH1 0x0 JUMPDEST DUP3 DUP2 LT ISZERO PUSH2 0x9DD JUMPI DUP5 DUP10 ADD MLOAD DUP3 SSTORE PUSH1 0x1 DUP3 ADD SWAP2 POP PUSH1 0x20 DUP6 ADD SWAP5 POP PUSH1 0x20 DUP2 ADD SWAP1 POP PUSH2 0x9B8 JUMP JUMPDEST DUP7 DUP4 LT ISZERO PUSH2 0x9FA JUMPI DUP5 DUP10 ADD MLOAD PUSH2 0x9F6 PUSH1 0x1F DUP10 AND DUP3 PUSH2 0x903 JUMP JUMPDEST DUP4 SSTORE POP JUMPDEST PUSH1 0x1 PUSH1 0x2 DUP9 MUL ADD DUP9 SSTORE POP POP POP JUMPDEST POP POP POP POP POP POP JUMP JUMPDEST PUSH1 0x0 PUSH2 0xA1A DUP3 PUSH2 0x63D JUMP JUMPDEST PUSH2 0xA24 DUP2 DUP6 PUSH2 0x5C0 JUMP JUMPDEST SWAP4 POP PUSH2 0xA34 DUP2 DUP6 PUSH1 0x20 DUP7 ADD PUSH2 0x653 JUMP JUMPDEST PUSH2 0xA3D DUP2 PUSH2 0x38F JUMP JUMPDEST DUP5 ADD SWAP2 POP POP SWAP3 SWAP2 POP POP JUMP JUMPDEST PUSH1 0x0 PUSH1 0x60 DUP3 ADD SWAP1 POP DUP2 DUP2 SUB PUSH1 0x0 DUP4 ADD MSTORE PUSH2 0xA62 DUP2 DUP7 PUSH2 0xA0F JUMP JUMPDEST SWAP1 POP PUSH2 0xA71 PUSH1 0x20 DUP4 ADD DUP6 PUSH2 0x539 JUMP JUMPDEST PUSH2 0xA7E PUSH1 0x40 DUP4 ADD DUP5 PUSH2 0x57A JUMP JUMPDEST SWAP5 SWAP4 POP POP POP POP JUMP INVALID LOG2 PUSH5 0x6970667358 0x22 SLT KECCAK256 CALLDATASIZE DUP8 DUP2 0xE9 EXTCODESIZE GT 0xA7 SHL PUSH24 0x71F9D56BB9E0FBAF9F6BD81081C96F8F798F6F1592959164 PUSH20 0x6F6C634300081400330000000000000000000000 "},"methodIdentifiers":{"registerDocument(string)":"4847a470","verifyDocument(string)":"beee5eb7"}}}}}