{
  "_format": "hh-sol-artifact-1",
  "contractName": "DocuTrustRegistry",
  "sourceName": "contracts/DocuTrustRegistry.sol",
  "abi": [
    {
      "anonymous": false,
      "inputs": [
        {
          "indexed": false,
          "internalType": "string",
          "name": "hash",
          "type": "string"
        },
        {
          "indexed": false,
          "internalType": "uint256",
          "name": "timestamp",
          "type": "uint256"
        },
        {
          "indexed": false,
          "internalType": "address",
          "name": "issuer",
          "type": "address"
        }
      ],
      "name": "DocumentRegistered",
      "type": "event"
    },
    {
      "inputs": [
        {
          "internalType": "string",
          "name": "_hash",
          "type": "string"
        }
      ],
      "name": "registerDocument",
      "outputs": [],
      "stateMutability": "nonpayable",
      "type": "function"
    },
    {
      "inputs": [
        {
          "internalType": "string",
          "name": "_hash",
          "type": "string"
        }
      ],
      "name": "verifyDocument",
      "outputs": [
        {
          "internalType": "bool",
          "name": "exists",
          "type": "bool"
        },
        {
          "internalType": "uint256",
          "name": "timestamp",
          "type": "uint256"
        },
        {
          "internalType": "address",
          "name": "issuer",
          "type": "address"
        }
      ],
      "stateMutability": "view",
      "type": "function"
    }
  ],
  "bytecode": "0x608060405234801561001057600080fd5b50610abc806100206000396000f3fe608060405234801561001057600080fd5b50600436106100365760003560e01c80634847a4701461003b578063beee5eb714610057575b600080fd5b610055600480360381019061005091906104cb565b610089565b005b610071600480360381019061006c91906104cb565b61022d565b60405161008093929190610589565b60405180910390f35b60008151116100cd576040517f08c379a00000000000000000000000000000000000000000000000000000000081526004016100c49061061d565b60405180910390fd5b600080826040516100de91906106ae565b90815260200160405180910390206001015414610130576040517f08c379a000000000000000000000000000000000000000000000000000000000815260040161012790610711565b60405180910390fd5b600042905060405180606001604052808381526020018281526020013373ffffffffffffffffffffffffffffffffffffffff1681525060008360405161017691906106ae565b90815260200160405180910390206000820151816000019081610199919061093d565b506020820151816001015560408201518160020160006101000a81548173ffffffffffffffffffffffffffffffffffffffff021916908373ffffffffffffffffffffffffffffffffffffffff1602179055509050507ffe385721665ef277aefa25d282c88da0eef2a081dd624e2b6f431b3a7f354eb082823360405161022193929190610a48565b60405180910390a15050565b60008060008060008560405161024391906106ae565b908152602001604051809103902060405180606001604052908160008201805461026c90610760565b80601f016020809104026020016040519081016040528092919081815260200182805461029890610760565b80156102e55780601f106102ba576101008083540402835291602001916102e5565b820191906000526020600020905b8154815290600101906020018083116102c857829003601f168201915b50505050508152602001600182015481526020016002820160009054906101000a900473ffffffffffffffffffffffffffffffffffffffff1673ffffffffffffffffffffffffffffffffffffffff1673ffffffffffffffffffffffffffffffffffffffff1681525050905060008160200151141593508060200151925080604001519150509193909250565b6000604051905090565b600080fd5b600080fd5b600080fd5b600080fd5b6000601f19601f8301169050919050565b7f4e487b7100000000000000000000000000000000000000000000000000000000600052604160045260246000fd5b6103d88261038f565b810181811067ffffffffffffffff821117156103f7576103f66103a0565b5b80604052505050565b600061040a610371565b905061041682826103cf565b919050565b600067ffffffffffffffff821115610436576104356103a0565b5b61043f8261038f565b9050602081019050919050565b82818337600083830152505050565b600061046e6104698461041b565b610400565b90508281526020810184848401111561048a5761048961038a565b5b61049584828561044c565b509392505050565b600082601f8301126104b2576104b1610385565b5b81356104c284826020860161045b565b91505092915050565b6000602082840312156104e1576104e061037b565b5b600082013567ffffffffffffffff8111156104ff576104fe610380565b5b61050b8482850161049d565b91505092915050565b60008115159050919050565b61052981610514565b82525050565b6000819050919050565b6105428161052f565b82525050565b600073ffffffffffffffffffffffffffffffffffffffff82169050919050565b600061057382610548565b9050919050565b61058381610568565b82525050565b600060608201905061059e6000830186610520565b6105ab6020830185610539565b6105b8604083018461057a565b949350505050565b600082825260208201905092915050565b7f4861736820697320726571756972656400000000000000000000000000000000600082015250565b60006106076010836105c0565b9150610612826105d1565b602082019050919050565b60006020820190508181036000830152610636816105fa565b9050919050565b600081519050919050565b600081905092915050565b60005b83811015610671578082015181840152602081019050610656565b60008484015250505050565b60006106888261063d565b6106928185610648565b93506106a2818560208601610653565b80840191505092915050565b60006106ba828461067d565b915081905092915050565b7f446f63756d656e7420616c726561647920726567697374657265640000000000600082015250565b60006106fb601b836105c0565b9150610706826106c5565b602082019050919050565b6000602082019050818103600083015261072a816106ee565b9050919050565b7f4e487b7100000000000000000000000000000000000000000000000000000000600052602260045260246000fd5b6000600282049050600182168061077857607f821691505b60208210810361078b5761078a610731565b5b50919050565b60008190508160005260206000209050919050565b60006020601f8301049050919050565b600082821b905092915050565b6000600883026107f37fffffffffffffffffffffffffffffffffffffffffffffffffffffffffffffffff826107b6565b6107fd86836107b6565b95508019841693508086168417925050509392505050565b6000819050919050565b600061083a6108356108308461052f565b610815565b61052f565b9050919050565b6000819050919050565b6108548361081f565b61086861086082610841565b8484546107c3565b825550505050565b600090565b61087d610870565b61088881848461084b565b505050565b5b818110156108ac576108a1600082610875565b60018101905061088e565b5050565b601f8211156108f1576108c281610791565b6108cb846107a6565b810160208510156108da578190505b6108ee6108e6856107a6565b83018261088d565b50505b505050565b600082821c905092915050565b6000610914600019846008026108f6565b1980831691505092915050565b600061092d8383610903565b9150826002028217905092915050565b6109468261063d565b67ffffffffffffffff81111561095f5761095e6103a0565b5b6109698254610760565b6109748282856108b0565b600060209050601f8311600181146109a75760008415610995578287015190505b61099f8582610921565b865550610a07565b601f1984166109b586610791565b60005b828110156109dd578489015182556001820191506020850194506020810190506109b8565b868310156109fa57848901516109f6601f891682610903565b8355505b6001600288020188555050505b505050505050565b6000610a1a8261063d565b610a2481856105c0565b9350610a34818560208601610653565b610a3d8161038f565b840191505092915050565b60006060820190508181036000830152610a628186610a0f565b9050610a716020830185610539565b610a7e604083018461057a565b94935050505056fea2646970667358221220368781e93b11a71b7771f9d56bb9e0fbaf9f6bd81081c96f8f798f6f1592959164736f6c63430008140033",
  "linkReferences": {},
  "deployedLinkReferences": {}
}